{
  "contractName": "Vote",
  "abi": [
    {
      "inputs": [],
      "name": "VOTE_ALREADY_VOTED",
      "outputs": [
        {
          "internalType": "string",
          "name": "",
          "type": "string"
        }
      ],
      "stateMutability": "view",
      "type": "function",
      "constant": true
    },
    {
      "inputs": [
        {
          "internalType": "uint256",
          "name": "",
          "type": "uint256"
        }
      ],
      "name": "candidatesList",
      "outputs": [
        {
          "internalType": "uint256",
          "name": "",
          "type": "uint256"
        }
      ],
      "stateMutability": "view",
      "type": "function",
      "constant": true
    },
    {
      "inputs": [
        {
          "internalType": "uint256",
          "name": "",
          "type": "uint256"
        }
      ],
      "name": "keys",
      "outputs": [
        {
          "internalType": "uint256",
          "name": "",
          "type": "uint256"
        }
      ],
      "stateMutability": "view",
      "type": "function",
      "constant": true
    },
    {
      "inputs": [
        {
          "internalType": "uint256",
          "name": "_id",
          "type": "uint256"
        }
      ],
      "name": "vote",
      "outputs": [],
      "stateMutability": "nonpayable",
      "type": "function"
    },
    {
      "inputs": [],
      "name": "getVoteList",
      "outputs": [
        {
          "internalType": "uint256[]",
          "name": "",
          "type": "uint256[]"
        },
        {
          "internalType": "uint256[]",
          "name": "",
          "type": "uint256[]"
        }
      ],
      "stateMutability": "view",
      "type": "function",
      "constant": true
    }
  ],
  "bytecode": "0x608060405234801561000f575f80fd5b506107e48061001d5f395ff3fe608060405234801561000f575f80fd5b5060043610610055575f3560e01c80630121b93f146100595780630cb6aaf1146100755780633a03ca43146100a55780634a4a8e00146100c4578063df2d5ec7146100e2575b5f80fd5b610073600480360381019061006e91906104c4565b610112565b005b61008f600480360381019061008a91906104c4565b6102a4565b60405161009c91906104fe565b60405180910390f35b6100ad6102c4565b6040516100bb9291906105ce565b60405180910390f35b6100cc6103e3565b6040516100d9919061068d565b60405180910390f35b6100fc60048036038101906100f791906104c4565b61041c565b60405161010991906104fe565b60405180910390f35b60015f3373ffffffffffffffffffffffffffffffffffffffff1673ffffffffffffffffffffffffffffffffffffffff1681526020019081526020015f205f9054906101000a900460ff16156040518060400160405280600181526020017f3100000000000000000000000000000000000000000000000000000000000000815250906101d4576040517f08c379a00000000000000000000000000000000000000000000000000000000081526004016101cb919061068d565b60405180910390fd5b505f805f8381526020019081526020015f20541480156101fa57506101f881610430565b155b1561022657600281908060018154018082558091505060019003905f5260205f20015f90919091909150555b60015f808381526020019081526020015f205f82825461024691906106da565b925050819055506001805f3373ffffffffffffffffffffffffffffffffffffffff1673ffffffffffffffffffffffffffffffffffffffff1681526020019081526020015f205f6101000a81548160ff02191690831515021790555050565b600281815481106102b3575f80fd5b905f5260205f20015f915090505481565b6060805f60028054905067ffffffffffffffff8111156102e7576102e661070d565b5b6040519080825280602002602001820160405280156103155781602001602082028036833780820191505090505b5090505f5b600280549050811015610386575f806002838154811061033d5761033c61073a565b5b905f5260205f20015481526020019081526020015f20548282815181106103675761036661073a565b5b602002602001018181525050808061037e90610767565b91505061031a565b50600281818054806020026020016040519081016040528092919081815260200182805480156103d357602002820191905f5260205f20905b8154815260200190600101908083116103bf575b5050505050915092509250509091565b6040518060400160405280600181526020017f310000000000000000000000000000000000000000000000000000000000000081525081565b5f602052805f5260405f205f915090505481565b5f805f90505b6002805490508110156104835782600282815481106104585761045761073a565b5b905f5260205f20015403610470576001915050610488565b808061047b90610767565b915050610436565b505f90505b919050565b5f80fd5b5f819050919050565b6104a381610491565b81146104ad575f80fd5b50565b5f813590506104be8161049a565b92915050565b5f602082840312156104d9576104d861048d565b5b5f6104e6848285016104b0565b91505092915050565b6104f881610491565b82525050565b5f6020820190506105115f8301846104ef565b92915050565b5f81519050919050565b5f82825260208201905092915050565b5f819050602082019050919050565b61054981610491565b82525050565b5f61055a8383610540565b60208301905092915050565b5f602082019050919050565b5f61057c82610517565b6105868185610521565b935061059183610531565b805f5b838110156105c15781516105a8888261054f565b97506105b383610566565b925050600181019050610594565b5085935050505092915050565b5f6040820190508181035f8301526105e68185610572565b905081810360208301526105fa8184610572565b90509392505050565b5f81519050919050565b5f82825260208201905092915050565b5f5b8381101561063a57808201518184015260208101905061061f565b5f8484015250505050565b5f601f19601f8301169050919050565b5f61065f82610603565b610669818561060d565b935061067981856020860161061d565b61068281610645565b840191505092915050565b5f6020820190508181035f8301526106a58184610655565b905092915050565b7f4e487b71000000000000000000000000000000000000000000000000000000005f52601160045260245ffd5b5f6106e482610491565b91506106ef83610491565b9250828201905080821115610707576107066106ad565b5b92915050565b7f4e487b71000000000000000000000000000000000000000000000000000000005f52604160045260245ffd5b7f4e487b71000000000000000000000000000000000000000000000000000000005f52603260045260245ffd5b5f61077182610491565b91507fffffffffffffffffffffffffffffffffffffffffffffffffffffffffffffffff82036107a3576107a26106ad565b5b60018201905091905056fea264697066735822122001b6a48cb702bb5ec1cfe05ff3371c3a74c5c71b088da7ab6f75268af5103b7364736f6c63430008150033",
  "immutableReferences": {},
  "source": "// SPDX-License-Identifier: MIT\npragma solidity ^0.8.0;\n\ncontract Vote {\n    // struct Candidate{\n    //     string names;\n    //     uint id;\n    //     uint votes;\n    // }\n    // Candidate[] public candidatesList;\n    mapping(uint => uint) public candidatesList;\n    mapping(address => bool) private hasVoted;\n    uint[] public keys;\n    string public constant VOTE_ALREADY_VOTED = \"1\";\n    function vote(uint _id) external {\n        require(!hasVoted[msg.sender], VOTE_ALREADY_VOTED);\n        if (candidatesList[_id] == 0 && !containsKey(_id)) {\n            keys.push(_id);\n        }\n        candidatesList[_id] += 1;\n        hasVoted[msg.sender] = true;\n    }\n    function getVoteList()\n        external\n        view\n        returns (uint[] memory, uint[] memory)\n    {\n        uint[] memory values = new uint[](keys.length);\n        for (uint i = 0; i < keys.length; i++) {\n            values[i] = candidatesList[keys[i]];\n        }\n        return (keys, values);\n    }\n    function containsKey(uint _id) internal view returns (bool) {\n        for (uint i = 0; i < keys.length; i++) {\n            if (keys[i] == _id) {\n                return true;\n            }\n        }\n        return false;\n    }\n}\n",
  "sourcePath": "/Users/actopas/code/de_vote/contracts/vote.sol",
  "compiler": {
    "name": "solc",
    "version": "0.8.21+commit.d9974bed.Emscripten.clang"
  },
  "schemaVersion": "3.4.16",
  "updatedAt": "2024-08-10T18:33:38.560Z",
  "networkType": "ethereum",
  "devdoc": {
    "kind": "dev",
    "methods": {},
    "version": 1
  },
  "userdoc": {
    "kind": "user",
    "methods": {},
    "version": 1
  }
}