{
  "contractName": "Vote",
  "abi": [
    {
      "inputs": [
        {
          "internalType": "uint256",
          "name": "",
          "type": "uint256"
        }
      ],
      "name": "candidatesList",
      "outputs": [
        {
          "internalType": "uint256",
          "name": "",
          "type": "uint256"
        }
      ],
      "stateMutability": "view",
      "type": "function",
      "constant": true
    },
    {
      "inputs": [
        {
          "internalType": "uint256",
          "name": "",
          "type": "uint256"
        }
      ],
      "name": "keys",
      "outputs": [
        {
          "internalType": "uint256",
          "name": "",
          "type": "uint256"
        }
      ],
      "stateMutability": "view",
      "type": "function",
      "constant": true
    },
    {
      "inputs": [
        {
          "internalType": "uint256",
          "name": "_id",
          "type": "uint256"
        }
      ],
      "name": "vote",
      "outputs": [],
      "stateMutability": "nonpayable",
      "type": "function"
    },
    {
      "inputs": [],
      "name": "getVoteList",
      "outputs": [
        {
          "internalType": "uint256[]",
          "name": "",
          "type": "uint256[]"
        },
        {
          "internalType": "uint256[]",
          "name": "",
          "type": "uint256[]"
        }
      ],
      "stateMutability": "view",
      "type": "function",
      "constant": true
    }
  ],
  "bytecode": "0x608060405234801561000f575f80fd5b506105c18061001d5f395ff3fe608060405234801561000f575f80fd5b506004361061004a575f3560e01c80630121b93f1461004e5780630cb6aaf11461006a5780633a03ca431461009a578063df2d5ec7146100b9575b5f80fd5b6100686004803603810190610063919061034b565b6100e9565b005b610084600480360381019061007f919061034b565b610164565b6040516100919190610385565b60405180910390f35b6100a2610184565b6040516100b0929190610455565b60405180910390f35b6100d360048036038101906100ce919061034b565b6102a3565b6040516100e09190610385565b60405180910390f35b5f805f8381526020019081526020015f205414801561010e575061010c816102b7565b155b1561013a57600181908060018154018082558091505060019003905f5260205f20015f90919091909150555b60015f808381526020019081526020015f205f82825461015a91906104b7565b9250508190555050565b60018181548110610173575f80fd5b905f5260205f20015f915090505481565b6060805f60018054905067ffffffffffffffff8111156101a7576101a66104ea565b5b6040519080825280602002602001820160405280156101d55781602001602082028036833780820191505090505b5090505f5b600180549050811015610246575f80600183815481106101fd576101fc610517565b5b905f5260205f20015481526020019081526020015f205482828151811061022757610226610517565b5b602002602001018181525050808061023e90610544565b9150506101da565b506001818180548060200260200160405190810160405280929190818152602001828054801561029357602002820191905f5260205f20905b81548152602001906001019080831161027f575b5050505050915092509250509091565b5f602052805f5260405f205f915090505481565b5f805f90505b60018054905081101561030a5782600182815481106102df576102de610517565b5b905f5260205f200154036102f757600191505061030f565b808061030290610544565b9150506102bd565b505f90505b919050565b5f80fd5b5f819050919050565b61032a81610318565b8114610334575f80fd5b50565b5f8135905061034581610321565b92915050565b5f602082840312156103605761035f610314565b5b5f61036d84828501610337565b91505092915050565b61037f81610318565b82525050565b5f6020820190506103985f830184610376565b92915050565b5f81519050919050565b5f82825260208201905092915050565b5f819050602082019050919050565b6103d081610318565b82525050565b5f6103e183836103c7565b60208301905092915050565b5f602082019050919050565b5f6104038261039e565b61040d81856103a8565b9350610418836103b8565b805f5b8381101561044857815161042f88826103d6565b975061043a836103ed565b92505060018101905061041b565b5085935050505092915050565b5f6040820190508181035f83015261046d81856103f9565b9050818103602083015261048181846103f9565b90509392505050565b7f4e487b71000000000000000000000000000000000000000000000000000000005f52601160045260245ffd5b5f6104c182610318565b91506104cc83610318565b92508282019050808211156104e4576104e361048a565b5b92915050565b7f4e487b71000000000000000000000000000000000000000000000000000000005f52604160045260245ffd5b7f4e487b71000000000000000000000000000000000000000000000000000000005f52603260045260245ffd5b5f61054e82610318565b91507fffffffffffffffffffffffffffffffffffffffffffffffffffffffffffffffff82036105805761057f61048a565b5b60018201905091905056fea2646970667358221220323dc43d8f658be771cda1dce04cbc3ba1ac5c5dcd470b684dd53801810526b264736f6c63430008150033",
  "immutableReferences": {},
  "source": "// SPDX-License-Identifier: MIT\npragma solidity ^0.8.0;\n\ncontract Vote {\n    // struct Candidate{\n    //     string names;\n    //     uint id;\n    //     uint votes;\n    // }\n    // Candidate[] public candidatesList;\n    mapping(uint => uint) public candidatesList;\n    uint[] public keys;\n    function vote(uint _id) external {\n        // listid\n        if (candidatesList[_id] == 0 && !containsKey(_id)) {\n            keys.push(_id);\n        }\n        candidatesList[_id] += 1; // \n    }\n    function getVoteList()\n        external\n        view\n        returns (uint[] memory, uint[] memory)\n    {\n        uint[] memory values = new uint[](keys.length);\n        for (uint i = 0; i < keys.length; i++) {\n            values[i] = candidatesList[keys[i]];\n        }\n        return (keys, values);\n    }\n    // ID\n    function containsKey(uint _id) internal view returns (bool) {\n        for (uint i = 0; i < keys.length; i++) {\n            if (keys[i] == _id) {\n                return true;\n            }\n        }\n        return false;\n    }\n}\n",
  "sourcePath": "/Users/actopas/code/blockvote/contracts/vote.sol",
  "compiler": {
    "name": "solc",
    "version": "0.8.21+commit.d9974bed.Emscripten.clang"
  },
  "schemaVersion": "3.4.16",
  "updatedAt": "2024-08-10T09:40:49.091Z",
  "networkType": "ethereum",
  "devdoc": {
    "kind": "dev",
    "methods": {},
    "version": 1
  },
  "userdoc": {
    "kind": "user",
    "methods": {},
    "version": 1
  }
}